{"abi":[{"inputs":[{"internalType":"contract CubeToken","name":"_cubeTokenAddress","type":"address"},{"internalType":"uint256","name":"_rate","type":"uint256"}],"stateMutability":"nonpayable","type":"constructor","name":"constructor"},{"inputs":[],"name":"CubeFarm__CannotStakeAmountZero","type":"error"},{"inputs":[],"name":"CubeFarm__CannotUnStakeMoreThanUserBalance","type":"error"},{"inputs":[],"name":"CubeFarm__CannotUnStakeZeroBalance","type":"error"},{"inputs":[],"name":"CubeFarm__ExternalCallFailed","type":"error"},{"inputs":[],"name":"CubeFarm__NoRewardsToTransfer","type":"error"},{"inputs":[],"name":"CubeFarm__TokenNotAllowed","type":"error"},{"anonymous":false,"inputs":[{"indexed":true,"internalType":"address","name":"previousOwner","type":"address"},{"indexed":true,"internalType":"address","name":"newOwner","type":"address"}],"name":"OwnershipTransferred","type":"event"},{"anonymous":false,"inputs":[{"indexed":true,"internalType":"address","name":"token","type":"address"},{"indexed":true,"internalType":"address","name":"staker","type":"address"},{"indexed":false,"internalType":"uint256","name":"amount","type":"uint256"}],"name":"TokenStaked","type":"event"},{"anonymous":false,"inputs":[{"indexed":true,"internalType":"address","name":"token","type":"address"},{"indexed":true,"internalType":"address","name":"staker","type":"address"},{"indexed":false,"internalType":"uint256","name":"amount","type":"uint256"}],"name":"TokenUnstaked","type":"event"},{"anonymous":false,"inputs":[{"indexed":true,"internalType":"address","name":"staker","type":"address"},{"indexed":false,"internalType":"uint256","name":"rewards","type":"uint256"}],"name":"YieldRewarded","type":"event"},{"inputs":[{"internalType":"address","name":"_token","type":"address"}],"name":"addAllowedToken","outputs":[],"stateMutability":"nonpayable","type":"function"},{"inputs":[],"name":"claimYieldRewards","outputs":[],"stateMutability":"nonpayable","type":"function"},{"inputs":[],"name":"getAllowedTokens","outputs":[{"internalType":"address[]","name":"","type":"address[]"}],"stateMutability":"view","type":"function"},{"inputs":[],"name":"getCubeTokenAddress","outputs":[{"internalType":"address","name":"","type":"address"}],"stateMutability":"view","type":"function"},{"inputs":[{"internalType":"address","name":"_user","type":"address"}],"name":"getNumberOfTokenStaked","outputs":[{"internalType":"uint256","name":"","type":"uint256"}],"stateMutability":"view","type":"function"},{"inputs":[{"internalType":"address","name":"_token","type":"address"}],"name":"getPriceFeedContract","outputs":[{"internalType":"address","name":"","type":"address"}],"stateMutability":"view","type":"function"},{"inputs":[],"name":"getRate","outputs":[{"internalType":"uint256","name":"","type":"uint256"}],"stateMutability":"view","type":"function"},{"inputs":[],"name":"getStakers","outputs":[{"internalType":"address[]","name":"","type":"address[]"}],"stateMutability":"view","type":"function"},{"inputs":[{"internalType":"address","name":"_user","type":"address"}],"name":"getTotalPendingRewards","outputs":[{"internalType":"uint256","name":"","type":"uint256"}],"stateMutability":"view","type":"function"},{"inputs":[{"internalType":"address","name":"_user","type":"address"}],"name":"getUserCubeBalance","outputs":[{"internalType":"uint256","name":"","type":"uint256"}],"stateMutability":"view","type":"function"},{"inputs":[{"internalType":"address","name":"_user","type":"address"},{"internalType":"address","name":"_token","type":"address"}],"name":"getUserTokenBalance","outputs":[{"internalType":"uint256","name":"","type":"uint256"}],"stateMutability":"view","type":"function"},{"inputs":[{"internalType":"address","name":"_user","type":"address"},{"internalType":"address","name":"_token","type":"address"}],"name":"getUserTokenStartTime","outputs":[{"internalType":"uint256","name":"","type":"uint256"}],"stateMutability":"view","type":"function"},{"inputs":[],"name":"owner","outputs":[{"internalType":"address","name":"","type":"address"}],"stateMutability":"view","type":"function"},{"inputs":[],"name":"renounceOwnership","outputs":[],"stateMutability":"nonpayable","type":"function"},{"inputs":[{"internalType":"address","name":"_token","type":"address"},{"internalType":"address","name":"_priceFeedAddress","type":"address"}],"name":"setPriceFeedContract","outputs":[],"stateMutability":"nonpayable","type":"function"},{"inputs":[{"internalType":"uint256","name":"_amount","type":"uint256"},{"internalType":"address","name":"_token","type":"address"}],"name":"stakeTokens","outputs":[],"stateMutability":"nonpayable","type":"function"},{"inputs":[{"internalType":"address","name":"newOwner","type":"address"}],"name":"transferOwnership","outputs":[],"stateMutability":"nonpayable","type":"function"},{"inputs":[{"internalType":"uint256","name":"_amount","type":"uint256"},{"internalType":"address","name":"_token","type":"address"}],"name":"unstakeTokens","outputs":[],"stateMutability":"nonpayable","type":"function"}],"bytecode":"60c060405234801561001057600080fd5b5060405161155f38038061155f83398101604081905261002f9161009e565b6100383361004e565b6001600160a01b0390911660805260a0526100d8565b600080546001600160a01b038381166001600160a01b0319831681178455604051919092169283917f8be0079c531659141344cd1fd0a4f28419497f9722a3daafe3b4186f6b6457e09190a35050565b600080604083850312156100b157600080fd5b82516001600160a01b03811681146100c857600080fd5b6020939093015192949293505050565b60805160a05161145461010b600039600081816101e60152610dca0152600081816102a20152610be701526114546000f3fe608060405234801561001057600080fd5b50600436106101165760003560e01c806384d269ad116100a2578063b5cdfd2911610071578063b5cdfd291461026f578063db0f53f914610298578063e699eb2c146102a0578063ed9666cf146102c6578063f2fde38b1461030057600080fd5b806384d269ad14610225578063877dd39d146102385780638da5cb5b1461024b578063a8c478ba1461025c57600080fd5b80634178617f116100e95780634178617f146101c957806343352d61146101dc578063679aefce146101e4578063715018a61461020a57806373f8fd4b1461021257600080fd5b8063024ece891461011b5780630bea440d1461013957806314c7b43c1461014e5780633464f28414610185575b600080fd5b610123610313565b60405161013091906110b4565b60405180910390f35b61014c61014736600461111d565b610375565b005b61017761015c366004611149565b6001600160a01b031660009081526003602052604090205490565b604051908152602001610130565b6101b1610193366004611149565b6001600160a01b039081166000908152600460205260409020541690565b6040516001600160a01b039091168152602001610130565b61014c6101d7366004611149565b610677565b6101236106d0565b7f0000000000000000000000000000000000000000000000000000000000000000610177565b61014c610730565b61017761022036600461116b565b610744565b61014c61023336600461111d565b610771565b61014c61024636600461116b565b610a9b565b6000546001600160a01b03166101b1565b61017761026a366004611149565b610ad1565b61017761027d366004611149565b6001600160a01b031660009081526005602052604090205490565b61014c610afd565b7f00000000000000000000000000000000000000000000000000000000000000006101b1565b6101776102d436600461116b565b6001600160a01b0380821660009081526007602090815260408083209386168352929052205492915050565b61014c61030e366004611149565b610c83565b6060600180548060200260200160405190810160405280929190818152602001828054801561036b57602002820191906000526020600020905b81546001600160a01b0316815260019091019060200180831161034d575b5050505050905090565b8115806103e957506040516370a0823160e01b815233600482015282906001600160a01b038316906370a0823190602401602060405180830381865afa1580156103c3573d6000803e3d6000fd5b505050506040513d601f19601f820116820180604052508101906103e79190611195565b105b15610407576040516306b69a2760e21b815260040160405180910390fd5b61041081610d01565b61042d5760405163235b06cd60e21b815260040160405180910390fd5b6001600160a01b038116600090815260066020908152604080832033845290915290205461047657336000908152600360205260408120805491610470836111c4565b91905055505b6001600160a01b0381166000908152600660209081526040808320338452909152902054156104d65760006104ab3383610d6a565b336000908152600560205260408120805492935083929091906104cf9084906111dd565b9091555050505b6001600160a01b03811660009081526006602090815260408083203384529091529020546105059083906111dd565b6001600160a01b038216600090815260066020908152604080832033845282528083209390935560039052205460010361057c57600280546001810182556000919091527f405787fa12a823e0f2b7631cc41b3ba8828b3321ca811111fa75cd3aa3bb5ace0180546001600160a01b031916331790555b6001600160a01b0381166000818152600760209081526040808320338085529252808320429055516323b872dd60e01b81526004810191909152306024820152604481018590529091906323b872dd906064016020604051808303816000875af11580156105ee573d6000803e3d6000fd5b505050506040513d601f19601f8201168201806040525081019061061291906111f0565b90508061063257604051632f4e075f60e11b815260040160405180910390fd5b60405183815233906001600160a01b038416907f17a90bf25d618e67de9bc66de5762d97787b11707d112164ab54c37111467f2b9060200160405180910390a3505050565b61067f610e66565b6001805480820182556000919091527fb10e2d527612073b26eecdfd717e6a320cf44b4afac2b0732d9fcbe2b7fa0cf60180546001600160a01b0319166001600160a01b0392909216919091179055565b6060600280548060200260200160405190810160405280929190818152602001828054801561036b576020028201919060005260206000209081546001600160a01b0316815260019091019060200180831161034d575050505050905090565b610738610e66565b6107426000610ec0565b565b6001600160a01b038082166000908152600660209081526040808320938616835292905220545b92915050565b6001600160a01b0381166000908152600660209081526040808320338452909152902054806107b3576040516335fac62760e11b815260040160405180910390fd5b808311156107d457604051635b461fd760e11b815260040160405180910390fd5b60006107e03384610d6a565b6001600160a01b0384166000818152600760209081526040808320338085529083528184204290559383526006825280832093835292905290812080549293508692909190610830908490611212565b909155505033600090815260056020526040812080548392906108549084906111dd565b90915550506001600160a01b038316600090815260066020908152604080832033845290915281205490036108a45733600090815260036020526040812080549161089e83611225565b91905055505b3360009081526003602052604081205490036109c05760005b6002548110156109be57336001600160a01b0316600282815481106108e4576108e461123c565b6000918252602090912001546001600160a01b0316036109ac576002805461090e90600190611212565b8154811061091e5761091e61123c565b600091825260209091200154600280546001600160a01b03909216918390811061094a5761094a61123c565b9060005260206000200160006101000a8154816001600160a01b0302191690836001600160a01b03160217905550600280548061098957610989611252565b600082815260209020810160001990810180546001600160a01b03191690550190555b806109b6816111c4565b9150506108bd565b505b60405163a9059cbb60e01b8152336004820152602481018590526000906001600160a01b0385169063a9059cbb906044016020604051808303816000875af1158015610a10573d6000803e3d6000fd5b505050506040513d601f19601f82011682018060405250810190610a3491906111f0565b905080610a5457604051632f4e075f60e11b815260040160405180910390fd5b60405185815233906001600160a01b038616907f4c5a68df1e54dd796657dc5832c88515a36dc92548af9951a0ef38dd61a3322e9060200160405180910390a35050505050565b610aa3610e66565b6001600160a01b03918216600090815260046020526040902080546001600160a01b03191691909216179055565b6001600160a01b038116600090815260056020526040812054610af383610f10565b61076b91906111dd565b6000610b0833610f10565b3360009081526005602052604090205490915015610b42573360009081526005602052604081208054919055610b3e81836111dd565b9150505b60005b600154811015610ba957426007600060018481548110610b6757610b6761123c565b60009182526020808320909101546001600160a01b03168352828101939093526040918201812033825290925290205580610ba1816111c4565b915050610b45565b5060008111610bcb57604051636ef1380360e01b815260040160405180910390fd5b6040516340c10f1960e01b8152336004820152602481018290527f00000000000000000000000000000000000000000000000000000000000000006001600160a01b0316906340c10f1990604401600060405180830381600087803b158015610c3357600080fd5b505af1158015610c47573d6000803e3d6000fd5b50506040518381523392507fa20cbc21ef05a5ee799b3b55232c5eca2c9e91f4ccbcb11bae6f6f0cbffe61d4915060200160405180910390a250565b610c8b610e66565b6001600160a01b038116610cf55760405162461bcd60e51b815260206004820152602660248201527f4f776e61626c653a206e6577206f776e657220697320746865207a65726f206160448201526564647265737360d01b60648201526084015b60405180910390fd5b610cfe81610ec0565b50565b6000805b600154811015610d6157826001600160a01b031660018281548110610d2c57610d2c61123c565b6000918252602090912001546001600160a01b031603610d4f5750600192915050565b80610d59816111c4565b915050610d05565b50600092915050565b6001600160a01b038216600090815260036020526040812054610d8f5750600061076b565b600080610d9b84610f75565b90925090506000610dad82600a61134c565b610db78787611075565b610dc19190611358565b90506000610def7f00000000000000000000000000000000000000000000000000000000000000008361136f565b90506000610dfe84600a61134c565b6001600160a01b038089166000908152600660209081526040808320938d1683529290522054610e2f908790611358565b610e39919061136f565b9050610e4684600a61134c565b610e508383611358565b610e5a919061136f565b98975050505050505050565b6000546001600160a01b031633146107425760405162461bcd60e51b815260206004820181905260248201527f4f776e61626c653a2063616c6c6572206973206e6f7420746865206f776e65726044820152606401610cec565b600080546001600160a01b038381166001600160a01b0319831681178455604051919092169283917f8be0079c531659141344cd1fd0a4f28419497f9722a3daafe3b4186f6b6457e09190a35050565b600080805b600154811015610f6e57610f508460018381548110610f3657610f3661123c565b6000918252602090912001546001600160a01b0316610d6a565b610f5a90836111dd565b915080610f66816111c4565b915050610f15565b5092915050565b6001600160a01b038082166000908152600460208190526040808320548151633fabe5a360e21b815291519394859491169283928592849263feaf968c928082019260a09290918290030181865afa158015610fd5573d6000803e3d6000fd5b505050506040513d601f19601f82011682018060405250810190610ff991906113ab565b5050509150506000826001600160a01b031663313ce5676040518163ffffffff1660e01b8152600401602060405180830381865afa15801561103f573d6000803e3d6000fd5b505050506040513d601f19601f8201168201806040525081019061106391906113fb565b919760ff909216965090945050505050565b6001600160a01b038082166000908152600760209081526040808320938616835292905290812054429082906110ab9083611212565b95945050505050565b6020808252825182820181905260009190848201906040850190845b818110156110f55783516001600160a01b0316835292840192918401916001016110d0565b50909695505050505050565b80356001600160a01b038116811461111857600080fd5b919050565b6000806040838503121561113057600080fd5b8235915061114060208401611101565b90509250929050565b60006020828403121561115b57600080fd5b61116482611101565b9392505050565b6000806040838503121561117e57600080fd5b61118783611101565b915061114060208401611101565b6000602082840312156111a757600080fd5b5051919050565b634e487b7160e01b600052601160045260246000fd5b6000600182016111d6576111d66111ae565b5060010190565b8082018082111561076b5761076b6111ae565b60006020828403121561120257600080fd5b8151801515811461116457600080fd5b8181038181111561076b5761076b6111ae565b600081611234576112346111ae565b506000190190565b634e487b7160e01b600052603260045260246000fd5b634e487b7160e01b600052603160045260246000fd5b600181815b808511156112a3578160001904821115611289576112896111ae565b8085161561129657918102915b93841c939080029061126d565b509250929050565b6000826112ba5750600161076b565b816112c75750600061076b565b81600181146112dd57600281146112e757611303565b600191505061076b565b60ff8411156112f8576112f86111ae565b50506001821b61076b565b5060208310610133831016604e8410600b8410161715611326575081810a61076b565b6113308383611268565b8060001904821115611344576113446111ae565b029392505050565b600061116483836112ab565b808202811582820484141761076b5761076b6111ae565b60008261138c57634e487b7160e01b600052601260045260246000fd5b500490565b805169ffffffffffffffffffff8116811461111857600080fd5b600080600080600060a086880312156113c357600080fd5b6113cc86611391565b94506020860151935060408601519250606086015191506113ef60808701611391565b90509295509295909350565b60006020828403121561140d57600080fd5b815160ff8116811461116457600080fdfea2646970667358221220ba52bf0251772e3b45fc8ae9041db96b2805764245c3fe0405eb69ff172928c864736f6c63430008110033","bytecodeSha1":"baabab11537c93731f180632b80eca5309ad6447","compiler":{"evm_version":"istanbul","optimizer":{"enabled":true,"runs":200},"version":"0.8.17+commit.8df45f5f"},"contractName":"CubeFarm","language":"Solidity","natspec":{"author":"jrchain","details":"The constructor takes the address of the CubeToken ERC20 and a rate. The rate is used in the algorithm to calculate the rewards that should be distributed to the user. The rate represents the time in seconds to be rewarded by 100% of the amount staked. For example if the rate is 86400 seconds (1 day) and the amount staked is 1 ether, then the reward will be 1 ether (in CubeToken) after 1 day of staking. Ownership of the CubeToken contract should be transferred to the CubeFarm contract after deployment. This contract also implements the Chainlink price feed.","kind":"dev","methods":{"addAllowedToken(address)":{"notice":"Add a token to the allowed tokens list","params":{"_token":"token address to add to the list"}},"claimYieldRewards()":{"details":"emit an event YieldRewarded when rewards have been claimed","notice":"Allow user to claim his rewards"},"constructor":{"notice":"contructor","params":{"_cubeTokenAddress":"CubeToken contract address","_rate":"rate in seconds for calculating the rewards"}},"getAllowedTokens()":{"notice":"Get the list of allowed tokens","returns":{"_0":"allowedTokens address list of allowed tokens"}},"getCubeTokenAddress()":{"notice":"Get Cube token address","returns":{"_0":"cubeTokenAddress Cube token address"}},"getNumberOfTokenStaked(address)":{"notice":"Get the number of different tokens a user stake","params":{"_user":"address of the user"},"returns":{"_0":"numberOfTokens number of tokens"}},"getPriceFeedContract(address)":{"notice":"Get the price feed address of a specific token","params":{"_token":"address of the token"},"returns":{"_0":"priceFeedAddress price feed address"}},"getRate()":{"notice":"Get the rate","returns":{"_0":"rate rate"}},"getStakers()":{"notice":"Get the list of stakers","returns":{"_0":"stakers address list of stakers"}},"getTotalPendingRewards(address)":{"notice":"Get the total of pending rewards of a specific user","params":{"_user":"address of the user"},"returns":{"_0":"totalPendingRewards total of pending rewards"}},"getUserCubeBalance(address)":{"notice":"Get Cube balance of a specific user","params":{"_user":"address of the user"},"returns":{"_0":"cubeBalance Cube balance"}},"getUserTokenBalance(address,address)":{"notice":"Get the balance of a specific token staked by a user","params":{"_token":"address of the token","_user":"address of the user"},"returns":{"_0":"balance balance staked"}},"getUserTokenStartTime(address,address)":{"notice":"Get the start time of last staking by a user on a specific token","params":{"_token":"address of the token","_user":"address of the user"},"returns":{"_0":"startTime start time from last staking"}},"owner()":{"details":"Returns the address of the current owner."},"renounceOwnership()":{"details":"Leaves the contract without owner. It will not be possible to call `onlyOwner` functions anymore. Can only be called by the current owner. NOTE: Renouncing ownership will leave the contract without an owner, thereby removing any functionality that is only available to the owner."},"setPriceFeedContract(address,address)":{"notice":"Set the price feed for a specific token","params":{"_priceFeedAddress":"price feed address","_token":"token address"}},"stakeTokens(uint256,address)":{"details":"emit an event TokenStaked when token is staked","notice":"Allow user to stake tokens","params":{"_amount":"amount to stake","_token":"address of the token to stake"}},"transferOwnership(address)":{"details":"Transfers ownership of the contract to a new account (`newOwner`). Can only be called by the current owner."},"unstakeTokens(uint256,address)":{"details":"emit an event TokenUnstaked when token is unstaked","notice":"Allow user to unstake tokens","params":{"_amount":"amount to unstake","_token":"address of the token to unstake"}}},"notice":"This contract creates a simple yield farming defi that rewards users for staking up their differents token with a new ERC20 token CubeToken.","title":"CubeFarm","version":1},"opcodes":"PUSH1 0x80 PUSH1 0x40 MSTORE CALLVALUE DUP1 ISZERO PUSH2 0x10 JUMPI PUSH1 0x0 DUP1 REVERT JUMPDEST POP PUSH1 0x4 CALLDATASIZE LT PUSH2 0x116 JUMPI PUSH1 0x0 CALLDATALOAD PUSH1 0xE0 SHR DUP1 PUSH4 0x84D269AD GT PUSH2 0xA2 JUMPI DUP1 PUSH4 0xB5CDFD29 GT PUSH2 0x71 JUMPI DUP1 PUSH4 0xB5CDFD29 EQ PUSH2 0x26F JUMPI DUP1 PUSH4 0xDB0F53F9 EQ PUSH2 0x298 JUMPI DUP1 PUSH4 0xE699EB2C EQ PUSH2 0x2A0 JUMPI DUP1 PUSH4 0xED9666CF EQ PUSH2 0x2C6 JUMPI DUP1 PUSH4 0xF2FDE38B EQ PUSH2 0x300 JUMPI PUSH1 0x0 DUP1 REVERT JUMPDEST DUP1 PUSH4 0x84D269AD EQ PUSH2 0x225 JUMPI DUP1 PUSH4 0x877DD39D EQ PUSH2 0x238 JUMPI DUP1 PUSH4 0x8DA5CB5B EQ PUSH2 0x24B JUMPI DUP1 PUSH4 0xA8C478BA EQ PUSH2 0x25C JUMPI PUSH1 0x0 DUP1 REVERT JUMPDEST DUP1 PUSH4 0x4178617F GT PUSH2 0xE9 JUMPI DUP1 PUSH4 0x4178617F EQ PUSH2 0x1C9 JUMPI DUP1 PUSH4 0x43352D61 EQ PUSH2 0x1DC JUMPI DUP1 PUSH4 0x679AEFCE EQ PUSH2 0x1E4 JUMPI DUP1 PUSH4 0x715018A6 EQ PUSH2 0x20A JUMPI DUP1 PUSH4 0x73F8FD4B EQ PUSH2 0x212 JUMPI PUSH1 0x0 DUP1 REVERT JUMPDEST DUP1 PUSH4 0x24ECE89 EQ PUSH2 0x11B JUMPI DUP1 PUSH4 0xBEA440D EQ PUSH2 0x139 JUMPI DUP1 PUSH4 0x14C7B43C EQ PUSH2 0x14E JUMPI DUP1 PUSH4 0x3464F284 EQ PUSH2 0x185 JUMPI JUMPDEST PUSH1 0x0 DUP1 REVERT JUMPDEST PUSH2 0x123 PUSH2 0x313 JUMP JUMPDEST PUSH1 0x40 MLOAD PUSH2 0x130 SWAP2 SWAP1 PUSH2 0x10B4 JUMP JUMPDEST PUSH1 0x40 MLOAD DUP1 SWAP2 SUB SWAP1 RETURN JUMPDEST PUSH2 0x14C PUSH2 0x147 CALLDATASIZE PUSH1 0x4 PUSH2 0x111D JUMP JUMPDEST PUSH2 0x375 JUMP JUMPDEST STOP JUMPDEST PUSH2 0x177 PUSH2 0x15C CALLDATASIZE PUSH1 0x4 PUSH2 0x1149 JUMP JUMPDEST PUSH1 0x1 PUSH1 0x1 PUSH1 0xA0 SHL SUB AND PUSH1 0x0 SWAP1 DUP2 MSTORE PUSH1 0x3 PUSH1 0x20 MSTORE PUSH1 0x40 SWAP1 KECCAK256 SLOAD SWAP1 JUMP JUMPDEST PUSH1 0x40 MLOAD SWAP1 DUP2 MSTORE PUSH1 0x20 ADD PUSH2 0x130 JUMP JUMPDEST PUSH2 0x1B1 PUSH2 0x193 CALLDATASIZE PUSH1 0x4 PUSH2 0x1149 JUMP JUMPDEST PUSH1 0x1 PUSH1 0x1 PUSH1 0xA0 SHL SUB SWAP1 DUP2 AND PUSH1 0x0 SWAP1 DUP2 MSTORE PUSH1 0x4 PUSH1 0x20 MSTORE PUSH1 0x40 SWAP1 KECCAK256 SLOAD AND SWAP1 JUMP JUMPDEST PUSH1 0x40 MLOAD PUSH1 0x1 PUSH1 0x1 PUSH1 0xA0 SHL SUB SWAP1 SWAP2 AND DUP2 MSTORE PUSH1 0x20 ADD PUSH2 0x130 JUMP JUMPDEST PUSH2 0x14C PUSH2 0x1D7 CALLDATASIZE PUSH1 0x4 PUSH2 0x1149 JUMP JUMPDEST PUSH2 0x677 JUMP JUMPDEST PUSH2 0x123 PUSH2 0x6D0 JUMP JUMPDEST PUSH32 0x0 PUSH2 0x177 JUMP JUMPDEST PUSH2 0x14C PUSH2 0x730 JUMP JUMPDEST PUSH2 0x177 PUSH2 0x220 CALLDATASIZE PUSH1 0x4 PUSH2 0x116B JUMP JUMPDEST PUSH2 0x744 JUMP JUMPDEST PUSH2 0x14C PUSH2 0x233 CALLDATASIZE PUSH1 0x4 PUSH2 0x111D JUMP JUMPDEST PUSH2 0x771 JUMP JUMPDEST PUSH2 0x14C PUSH2 0x246 CALLDATASIZE PUSH1 0x4 PUSH2 0x116B JUMP JUMPDEST PUSH2 0xA9B JUMP JUMPDEST PUSH1 0x0 SLOAD PUSH1 0x1 PUSH1 0x1 PUSH1 0xA0 SHL SUB AND PUSH2 0x1B1 JUMP JUMPDEST PUSH2 0x177 PUSH2 0x26A CALLDATASIZE PUSH1 0x4 PUSH2 0x1149 JUMP JUMPDEST PUSH2 0xAD1 JUMP JUMPDEST PUSH2 0x177 PUSH2 0x27D CALLDATASIZE PUSH1 0x4 PUSH2 0x1149 JUMP JUMPDEST PUSH1 0x1 PUSH1 0x1 PUSH1 0xA0 SHL SUB AND PUSH1 0x0 SWAP1 DUP2 MSTORE PUSH1 0x5 PUSH1 0x20 MSTORE PUSH1 0x40 SWAP1 KECCAK256 SLOAD SWAP1 JUMP JUMPDEST PUSH2 0x14C PUSH2 0xAFD JUMP JUMPDEST PUSH32 0x0 PUSH2 0x1B1 JUMP JUMPDEST PUSH2 0x177 PUSH2 0x2D4 CALLDATASIZE PUSH1 0x4 PUSH2 0x116B JUMP JUMPDEST PUSH1 0x1 PUSH1 0x1 PUSH1 0xA0 SHL SUB DUP1 DUP3 AND PUSH1 0x0 SWAP1 DUP2 MSTORE PUSH1 0x7 PUSH1 0x20 SWAP1 DUP2 MSTORE PUSH1 0x40 DUP1 DUP4 KECCAK256 SWAP4 DUP7 AND DUP4 MSTORE SWAP3 SWAP1 MSTORE KECCAK256 SLOAD SWAP3 SWAP2 POP POP JUMP JUMPDEST PUSH2 0x14C PUSH2 0x30E CALLDATASIZE PUSH1 0x4 PUSH2 0x1149 JUMP JUMPDEST PUSH2 0xC83 JUMP JUMPDEST PUSH1 0x60 PUSH1 0x1 DUP1 SLOAD DUP1 PUSH1 0x20 MUL PUSH1 0x20 ADD PUSH1 0x40 MLOAD SWAP1 DUP2 ADD PUSH1 0x40 MSTORE DUP1 SWAP3 SWAP2 SWAP1 DUP2 DUP2 MSTORE PUSH1 0x20 ADD DUP3 DUP1 SLOAD DUP1 ISZERO PUSH2 0x36B JUMPI PUSH1 0x20 MUL DUP3 ADD SWAP2 SWAP1 PUSH1 0x0 MSTORE PUSH1 0x20 PUSH1 0x0 KECCAK256 SWAP1 JUMPDEST DUP2 SLOAD PUSH1 0x1 PUSH1 0x1 PUSH1 0xA0 SHL SUB AND DUP2 MSTORE PUSH1 0x1 SWAP1 SWAP2 ADD SWAP1 PUSH1 0x20 ADD DUP1 DUP4 GT PUSH2 0x34D JUMPI JUMPDEST POP POP POP POP POP SWAP1 POP SWAP1 JUMP JUMPDEST DUP2 ISZERO DUP1 PUSH2 0x3E9 JUMPI POP PUSH1 0x40 MLOAD PUSH4 0x70A08231 PUSH1 0xE0 SHL DUP2 MSTORE CALLER PUSH1 0x4 DUP3 ADD MSTORE DUP3 SWAP1 PUSH1 0x1 PUSH1 0x1 PUSH1 0xA0 SHL SUB DUP4 AND SWAP1 PUSH4 0x70A08231 SWAP1 PUSH1 0x24 ADD PUSH1 0x20 PUSH1 0x40 MLOAD DUP1 DUP4 SUB DUP2 DUP7 GAS STATICCALL ISZERO DUP1 ISZERO PUSH2 0x3C3 JUMPI RETURNDATASIZE PUSH1 0x0 DUP1 RETURNDATACOPY RETURNDATASIZE PUSH1 0x0 REVERT JUMPDEST POP POP POP POP PUSH1 0x40 MLOAD RETURNDATASIZE PUSH1 0x1F NOT PUSH1 0x1F DUP3 ADD AND DUP3 ADD DUP1 PUSH1 0x40 MSTORE POP DUP2 ADD SWAP1 PUSH2 0x3E7 SWAP2 SWAP1 PUSH2 0x1195 JUMP JUMPDEST LT JUMPDEST ISZERO PUSH2 0x407 JUMPI PUSH1 0x40 MLOAD PUSH4 0x6B69A27 PUSH1 0xE2 SHL DUP2 MSTORE PUSH1 0x4 ADD PUSH1 0x40 MLOAD DUP1 SWAP2 SUB SWAP1 REVERT JUMPDEST PUSH2 0x410 DUP2 PUSH2 0xD01 JUMP JUMPDEST PUSH2 0x42D JUMPI PUSH1 0x40 MLOAD PUSH4 0x235B06CD PUSH1 0xE2 SHL DUP2 MSTORE PUSH1 0x4 ADD PUSH1 0x40 MLOAD DUP1 SWAP2 SUB SWAP1 REVERT JUMPDEST PUSH1 0x1 PUSH1 0x1 PUSH1 0xA0 SHL SUB DUP2 AND PUSH1 0x0 SWAP1 DUP2 MSTORE PUSH1 0x6 PUSH1 0x20 SWAP1 DUP2 MSTORE PUSH1 0x40 DUP1 DUP4 KECCAK256 CALLER DUP5 MSTORE SWAP1 SWAP2 MSTORE SWAP1 KECCAK256 SLOAD PUSH2 0x476 JUMPI CALLER PUSH1 0x0 SWAP1 DUP2 MSTORE PUSH1 0x3 PUSH1 0x20 MSTORE PUSH1 0x40 DUP2 KECCAK256 DUP1 SLOAD SWAP2 PUSH2 0x470 DUP4 PUSH2 0x11C4 JUMP JUMPDEST SWAP2 SWAP1 POP SSTORE POP JUMPDEST PUSH1 0x1 PUSH1 0x1 PUSH1 0xA0 SHL SUB DUP2 AND PUSH1 0x0 SWAP1 DUP2 MSTORE PUSH1 0x6 PUSH1 0x20 SWAP1 DUP2 MSTORE PUSH1 0x40 DUP1 DUP4 KECCAK256 CALLER DUP5 MSTORE SWAP1 SWAP2 MSTORE SWAP1 KECCAK256 SLOAD ISZERO PUSH2 0x4D6 JUMPI PUSH1 0x0 PUSH2 0x4AB CALLER DUP4 PUSH2 0xD6A JUMP JUMPDEST CALLER PUSH1 0x0 SWAP1 DUP2 MSTORE PUSH1 0x5 PUSH1 0x20 MSTORE PUSH1 0x40 DUP2 KECCAK256 DUP1 SLOAD SWAP3 SWAP4 POP DUP4 SWAP3 SWAP1 SWAP2 SWAP1 PUSH2 0x4CF SWAP1 DUP5 SWAP1 PUSH2 0x11DD JUMP JUMPDEST SWAP1 SWAP2 SSTORE POP POP POP JUMPDEST PUSH1 0x1 PUSH1 0x1 PUSH1 0xA0 SHL SUB DUP2 AND PUSH1 0x0 SWAP1 DUP2 MSTORE PUSH1 0x6 PUSH1 0x20 SWAP1 DUP2 MSTORE PUSH1 0x40 DUP1 DUP4 KECCAK256 CALLER DUP5 MSTORE SWAP1 SWAP2 MSTORE SWAP1 KECCAK256 SLOAD PUSH2 0x505 SWAP1 DUP4 SWAP1 PUSH2 0x11DD JUMP JUMPDEST PUSH1 0x1 PUSH1 0x1 PUSH1 0xA0 SHL SUB DUP3 AND PUSH1 0x0 SWAP1 DUP2 MSTORE PUSH1 0x6 PUSH1 0x20 SWAP1 DUP2 MSTORE PUSH1 0x40 DUP1 DUP4 KECCAK256 CALLER DUP5 MSTORE DUP3 MSTORE DUP1 DUP4 KECCAK256 SWAP4 SWAP1 SWAP4 SSTORE PUSH1 0x3 SWAP1 MSTORE KECCAK256 SLOAD PUSH1 0x1 SUB PUSH2 0x57C JUMPI PUSH1 0x2 DUP1 SLOAD PUSH1 0x1 DUP2 ADD DUP3 SSTORE PUSH1 0x0 SWAP2 SWAP1 SWAP2 MSTORE PUSH32 0x405787FA12A823E0F2B7631CC41B3BA8828B3321CA811111FA75CD3AA3BB5ACE ADD DUP1 SLOAD PUSH1 0x1 PUSH1 0x1 PUSH1 0xA0 SHL SUB NOT AND CALLER OR SWAP1 SSTORE JUMPDEST PUSH1 0x1 PUSH1 0x1 PUSH1 0xA0 SHL SUB DUP2 AND PUSH1 0x0 DUP2 DUP2 MSTORE PUSH1 0x7 PUSH1 0x20 SWAP1 DUP2 MSTORE PUSH1 0x40 DUP1 DUP4 KECCAK256 CALLER DUP1 DUP6 MSTORE SWAP3 MSTORE DUP1 DUP4 KECCAK256 TIMESTAMP SWAP1 SSTORE MLOAD PUSH4 0x23B872DD PUSH1 0xE0 SHL DUP2 MSTORE PUSH1 0x4 DUP2 ADD SWAP2 SWAP1 SWAP2 MSTORE ADDRESS PUSH1 0x24 DUP3 ADD MSTORE PUSH1 0x44 DUP2 ADD DUP6 SWAP1 MSTORE SWAP1 SWAP2 SWAP1 PUSH4 0x23B872DD SWAP1 PUSH1 0x64 ADD PUSH1 0x20 PUSH1 0x40 MLOAD DUP1 DUP4 SUB DUP2 PUSH1 0x0 DUP8 GAS CALL ISZERO DUP1 ISZERO PUSH2 0x5EE JUMPI RETURNDATASIZE PUSH1 0x0 DUP1 RETURNDATACOPY RETURNDATASIZE PUSH1 0x0 REVERT JUMPDEST POP POP POP POP PUSH1 0x40 MLOAD RETURNDATASIZE PUSH1 0x1F NOT PUSH1 0x1F DUP3 ADD AND DUP3 ADD DUP1 PUSH1 0x40 MSTORE POP DUP2 ADD SWAP1 PUSH2 0x612 SWAP2 SWAP1 PUSH2 0x11F0 JUMP JUMPDEST SWAP1 POP DUP1 PUSH2 0x632 JUMPI PUSH1 0x40 MLOAD PUSH4 0x2F4E075F PUSH1 0xE1 SHL DUP2 MSTORE PUSH1 0x4 ADD PUSH1 0x40 MLOAD DUP1 SWAP2 SUB SWAP1 REVERT JUMPDEST PUSH1 0x40 MLOAD DUP4 DUP2 MSTORE CALLER SWAP1 PUSH1 0x1 PUSH1 0x1 PUSH1 0xA0 SHL SUB DUP5 AND SWAP1 PUSH32 0x17A90BF25D618E67DE9BC66DE5762D97787B11707D112164AB54C37111467F2B SWAP1 PUSH1 0x20 ADD PUSH1 0x40 MLOAD DUP1 SWAP2 SUB SWAP1 LOG3 POP POP POP JUMP JUMPDEST PUSH2 0x67F PUSH2 0xE66 JUMP JUMPDEST PUSH1 0x1 DUP1 SLOAD DUP1 DUP3 ADD DUP3 SSTORE PUSH1 0x0 SWAP2 SWAP1 SWAP2 MSTORE PUSH32 0xB10E2D527612073B26EECDFD717E6A320CF44B4AFAC2B0732D9FCBE2B7FA0CF6 ADD DUP1 SLOAD PUSH1 0x1 PUSH1 0x1 PUSH1 0xA0 SHL SUB NOT AND PUSH1 0x1 PUSH1 0x1 PUSH1 0xA0 SHL SUB SWAP3 SWAP1 SWAP3 AND SWAP2 SWAP1 SWAP2 OR SWAP1 SSTORE JUMP JUMPDEST PUSH1 0x60 PUSH1 0x2 DUP1 SLOAD DUP1 PUSH1 0x20 MUL PUSH1 0x20 ADD PUSH1 0x40 MLOAD SWAP1 DUP2 ADD PUSH1 0x40 MSTORE DUP1 SWAP3 SWAP2 SWAP1 DUP2 DUP2 MSTORE PUSH1 0x20 ADD DUP3 DUP1 SLOAD DUP1 ISZERO PUSH2 0x36B JUMPI PUSH1 0x20 MUL DUP3 ADD SWAP2 SWAP1 PUSH1 0x0 MSTORE PUSH1 0x20 PUSH1 0x0 KECCAK256 SWAP1 DUP2 SLOAD PUSH1 0x1 PUSH1 0x1 PUSH1 0xA0 SHL SUB AND DUP2 MSTORE PUSH1 0x1 SWAP1 SWAP2 ADD SWAP1 PUSH1 0x20 ADD DUP1 DUP4 GT PUSH2 0x34D JUMPI POP POP POP POP POP SWAP1 POP SWAP1 JUMP JUMPDEST PUSH2 0x738 PUSH2 0xE66 JUMP JUMPDEST PUSH2 0x742 PUSH1 0x0 PUSH2 0xEC0 JUMP JUMPDEST JUMP JUMPDEST PUSH1 0x1 PUSH1 0x1 PUSH1 0xA0 SHL SUB DUP1 DUP3 AND PUSH1 0x0 SWAP1 DUP2 MSTORE PUSH1 0x6 PUSH1 0x20 SWAP1 DUP2 MSTORE PUSH1 0x40 DUP1 DUP4 KECCAK256 SWAP4 DUP7 AND DUP4 MSTORE SWAP3 SWAP1 MSTORE KECCAK256 SLOAD JUMPDEST SWAP3 SWAP2 POP POP JUMP JUMPDEST PUSH1 0x1 PUSH1 0x1 PUSH1 0xA0 SHL SUB DUP2 AND PUSH1 0x0 SWAP1 DUP2 MSTORE PUSH1 0x6 PUSH1 0x20 SWAP1 DUP2 MSTORE PUSH1 0x40 DUP1 DUP4 KECCAK256 CALLER DUP5 MSTORE SWAP1 SWAP2 MSTORE SWAP1 KECCAK256 SLOAD DUP1 PUSH2 0x7B3 JUMPI PUSH1 0x40 MLOAD PUSH4 0x35FAC627 PUSH1 0xE1 SHL DUP2 MSTORE PUSH1 0x4 ADD PUSH1 0x40 MLOAD DUP1 SWAP2 SUB SWAP1 REVERT JUMPDEST DUP1 DUP4 GT ISZERO PUSH2 0x7D4 JUMPI PUSH1 0x40 MLOAD PUSH4 0x5B461FD7 PUSH1 0xE1 SHL DUP2 MSTORE PUSH1 0x4 ADD PUSH1 0x40 MLOAD DUP1 SWAP2 SUB SWAP1 REVERT JUMPDEST PUSH1 0x0 PUSH2 0x7E0 CALLER DUP5 PUSH2 0xD6A JUMP JUMPDEST PUSH1 0x1 PUSH1 0x1 PUSH1 0xA0 SHL SUB DUP5 AND PUSH1 0x0 DUP2 DUP2 MSTORE PUSH1 0x7 PUSH1 0x20 SWAP1 DUP2 MSTORE PUSH1 0x40 DUP1 DUP4 KECCAK256 CALLER DUP1 DUP6 MSTORE SWAP1 DUP4 MSTORE DUP2 DUP5 KECCAK256 TIMESTAMP SWAP1 SSTORE SWAP4 DUP4 MSTORE PUSH1 0x6 DUP3 MSTORE DUP1 DUP4 KECCAK256 SWAP4 DUP4 MSTORE SWAP3 SWAP1 MSTORE SWAP1 DUP2 KECCAK256 DUP1 SLOAD SWAP3 SWAP4 POP DUP7 SWAP3 SWAP1 SWAP2 SWAP1 PUSH2 0x830 SWAP1 DUP5 SWAP1 PUSH2 0x1212 JUMP JUMPDEST SWAP1 SWAP2 SSTORE POP POP CALLER PUSH1 0x0 SWAP1 DUP2 MSTORE PUSH1 0x5 PUSH1 0x20 MSTORE PUSH1 0x40 DUP2 KECCAK256 DUP1 SLOAD DUP4 SWAP3 SWAP1 PUSH2 0x854 SWAP1 DUP5 SWAP1 PUSH2 0x11DD JUMP JUMPDEST SWAP1 SWAP2 SSTORE POP POP PUSH1 0x1 PUSH1 0x1 PUSH1 0xA0 SHL SUB DUP4 AND PUSH1 0x0 SWAP1 DUP2 MSTORE PUSH1 0x6 PUSH1 0x20 SWAP1 DUP2 MSTORE PUSH1 0x40 DUP1 DUP4 KECCAK256 CALLER DUP5 MSTORE SWAP1 SWAP2 MSTORE DUP2 KECCAK256 SLOAD SWAP1 SUB PUSH2 0x8A4 JUMPI CALLER PUSH1 0x0 SWAP1 DUP2 MSTORE PUSH1 0x3 PUSH1 0x20 MSTORE PUSH1 0x40 DUP2 KECCAK256 DUP1 SLOAD SWAP2 PUSH2 0x89E DUP4 PUSH2 0x1225 JUMP JUMPDEST SWAP2 SWAP1 POP SSTORE POP JUMPDEST CALLER PUSH1 0x0 SWAP1 DUP2 MSTORE PUSH1 0x3 PUSH1 0x20 MSTORE PUSH1 0x40 DUP2 KECCAK256 SLOAD SWAP1 SUB PUSH2 0x9C0 JUMPI PUSH1 0x0 JUMPDEST PUSH1 0x2 SLOAD DUP2 LT ISZERO PUSH2 0x9BE JUMPI CALLER PUSH1 0x1 PUSH1 0x1 PUSH1 0xA0 SHL SUB AND PUSH1 0x2 DUP3 DUP2 SLOAD DUP2 LT PUSH2 0x8E4 JUMPI PUSH2 0x8E4 PUSH2 0x123C JUMP JUMPDEST PUSH1 0x0 SWAP2 DUP3 MSTORE PUSH1 0x20 SWAP1 SWAP2 KECCAK256 ADD SLOAD PUSH1 0x1 PUSH1 0x1 PUSH1 0xA0 SHL SUB AND SUB PUSH2 0x9AC JUMPI PUSH1 0x2 DUP1 SLOAD PUSH2 0x90E SWAP1 PUSH1 0x1 SWAP1 PUSH2 0x1212 JUMP JUMPDEST DUP2 SLOAD DUP2 LT PUSH2 0x91E JUMPI PUSH2 0x91E PUSH2 0x123C JUMP JUMPDEST PUSH1 0x0 SWAP2 DUP3 MSTORE PUSH1 0x20 SWAP1 SWAP2 KECCAK256 ADD SLOAD PUSH1 0x2 DUP1 SLOAD PUSH1 0x1 PUSH1 0x1 PUSH1 0xA0 SHL SUB SWAP1 SWAP3 AND SWAP2 DUP4 SWAP1 DUP2 LT PUSH2 0x94A JUMPI PUSH2 0x94A PUSH2 0x123C JUMP JUMPDEST SWAP1 PUSH1 0x0 MSTORE PUSH1 0x20 PUSH1 0x0 KECCAK256 ADD PUSH1 0x0 PUSH2 0x100 EXP DUP2 SLOAD DUP2 PUSH1 0x1 PUSH1 0x1 PUSH1 0xA0 SHL SUB MUL NOT AND SWAP1 DUP4 PUSH1 0x1 PUSH1 0x1 PUSH1 0xA0 SHL SUB AND MUL OR SWAP1 SSTORE POP PUSH1 0x2 DUP1 SLOAD DUP1 PUSH2 0x989 JUMPI PUSH2 0x989 PUSH2 0x1252 JUMP JUMPDEST PUSH1 0x0 DUP3 DUP2 MSTORE PUSH1 0x20 SWAP1 KECCAK256 DUP2 ADD PUSH1 0x0 NOT SWAP1 DUP2 ADD DUP1 SLOAD PUSH1 0x1 PUSH1 0x1 PUSH1 0xA0 SHL SUB NOT AND SWAP1 SSTORE ADD SWAP1 SSTORE JUMPDEST DUP1 PUSH2 0x9B6 DUP2 PUSH2 0x11C4 JUMP JUMPDEST SWAP2 POP POP PUSH2 0x8BD JUMP JUMPDEST POP JUMPDEST PUSH1 0x40 MLOAD PUSH4 0xA9059CBB PUSH1 0xE0 SHL DUP2 MSTORE CALLER PUSH1 0x4 DUP3 ADD MSTORE PUSH1 0x24 DUP2 ADD DUP6 SWAP1 MSTORE PUSH1 0x0 SWAP1 PUSH1 0x1 PUSH1 0x1 PUSH1 0xA0 SHL SUB DUP6 AND SWAP1 PUSH4 0xA9059CBB SWAP1 PUSH1 0x44 ADD PUSH1 0x20 PUSH1 0x40 MLOAD DUP1 DUP4 SUB DUP2 PUSH1 0x0 DUP8 GAS CALL ISZERO DUP1 ISZERO PUSH2 0xA10 JUMPI RETURNDATASIZE PUSH1 0x0 DUP1 RETURNDATACOPY RETURNDATASIZE PUSH1 0x0 REVERT JUMPDEST POP POP POP POP PUSH1 0x40 MLOAD RETURNDATASIZE PUSH1 0x1F NOT PUSH1 0x1F DUP3 ADD AND DUP3 ADD DUP1 PUSH1 0x40 MSTORE POP DUP2 ADD SWAP1 PUSH2 0xA34 SWAP2 SWAP1 PUSH2 0x11F0 JUMP JUMPDEST SWAP1 POP DUP1 PUSH2 0xA54 JUMPI PUSH1 0x40 MLOAD PUSH4 0x2F4E075F PUSH1 0xE1 SHL DUP2 MSTORE PUSH1 0x4 ADD PUSH1 0x40 MLOAD DUP1 SWAP2 SUB SWAP1 REVERT JUMPDEST PUSH1 0x40 MLOAD DUP6 DUP2 MSTORE CALLER SWAP1 PUSH1 0x1 PUSH1 0x1 PUSH1 0xA0 SHL SUB DUP7 AND SWAP1 PUSH32 0x4C5A68DF1E54DD796657DC5832C88515A36DC92548AF9951A0EF38DD61A3322E SWAP1 PUSH1 0x20 ADD PUSH1 0x40 MLOAD DUP1 SWAP2 SUB SWAP1 LOG3 POP POP POP POP POP JUMP JUMPDEST PUSH2 0xAA3 PUSH2 0xE66 JUMP JUMPDEST PUSH1 0x1 PUSH1 0x1 PUSH1 0xA0 SHL SUB SWAP2 DUP3 AND PUSH1 0x0 SWAP1 DUP2 MSTORE PUSH1 0x4 PUSH1 0x20 MSTORE PUSH1 0x40 SWAP1 KECCAK256 DUP1 SLOAD PUSH1 0x1 PUSH1 0x1 PUSH1 0xA0 SHL SUB NOT AND SWAP2 SWAP1 SWAP3 AND OR SWAP1 SSTORE JUMP JUMPDEST PUSH1 0x1 PUSH1 0x1 PUSH1 0xA0 SHL SUB DUP2 AND PUSH1 0x0 SWAP1 DUP2 MSTORE PUSH1 0x5 PUSH1 0x20 MSTORE PUSH1 0x40 DUP2 KECCAK256 SLOAD PUSH2 0xAF3 DUP4 PUSH2 0xF10 JUMP JUMPDEST PUSH2 0x76B SWAP2 SWAP1 PUSH2 0x11DD JUMP JUMPDEST PUSH1 0x0 PUSH2 0xB08 CALLER PUSH2 0xF10 JUMP JUMPDEST CALLER PUSH1 0x0 SWAP1 DUP2 MSTORE PUSH1 0x5 PUSH1 0x20 MSTORE PUSH1 0x40 SWAP1 KECCAK256 SLOAD SWAP1 SWAP2 POP ISZERO PUSH2 0xB42 JUMPI CALLER PUSH1 0x0 SWAP1 DUP2 MSTORE PUSH1 0x5 PUSH1 0x20 MSTORE PUSH1 0x40 DUP2 KECCAK256 DUP1 SLOAD SWAP2 SWAP1 SSTORE PUSH2 0xB3E DUP2 DUP4 PUSH2 0x11DD JUMP JUMPDEST SWAP2 POP POP JUMPDEST PUSH1 0x0 JUMPDEST PUSH1 0x1 SLOAD DUP2 LT ISZERO PUSH2 0xBA9 JUMPI TIMESTAMP PUSH1 0x7 PUSH1 0x0 PUSH1 0x1 DUP5 DUP2 SLOAD DUP2 LT PUSH2 0xB67 JUMPI PUSH2 0xB67 PUSH2 0x123C JUMP JUMPDEST PUSH1 0x0 SWAP2 DUP3 MSTORE PUSH1 0x20 DUP1 DUP4 KECCAK256 SWAP1 SWAP2 ADD SLOAD PUSH1 0x1 PUSH1 0x1 PUSH1 0xA0 SHL SUB AND DUP4 MSTORE DUP3 DUP2 ADD SWAP4 SWAP1 SWAP4 MSTORE PUSH1 0x40 SWAP2 DUP3 ADD DUP2 KECCAK256 CALLER DUP3 MSTORE SWAP1 SWAP3 MSTORE SWAP1 KECCAK256 SSTORE DUP1 PUSH2 0xBA1 DUP2 PUSH2 0x11C4 JUMP JUMPDEST SWAP2 POP POP PUSH2 0xB45 JUMP JUMPDEST POP PUSH1 0x0 DUP2 GT PUSH2 0xBCB JUMPI PUSH1 0x40 MLOAD PUSH4 0x6EF13803 PUSH1 0xE0 SHL DUP2 MSTORE PUSH1 0x4 ADD PUSH1 0x40 MLOAD DUP1 SWAP2 SUB SWAP1 REVERT JUMPDEST PUSH1 0x40 MLOAD PUSH4 0x40C10F19 PUSH1 0xE0 SHL DUP2 MSTORE CALLER PUSH1 0x4 DUP3 ADD MSTORE PUSH1 0x24 DUP2 ADD DUP3 SWAP1 MSTORE PUSH32 0x0 PUSH1 0x1 PUSH1 0x1 PUSH1 0xA0 SHL SUB AND SWAP1 PUSH4 0x40C10F19 SWAP1 PUSH1 0x44 ADD PUSH1 0x0 PUSH1 0x40 MLOAD DUP1 DUP4 SUB DUP2 PUSH1 0x0 DUP8 DUP1 EXTCODESIZE ISZERO DUP1 ISZERO PUSH2 0xC33 JUMPI PUSH1 0x0 DUP1 REVERT JUMPDEST POP GAS CALL ISZERO DUP1 ISZERO PUSH2 0xC47 JUMPI RETURNDATASIZE PUSH1 0x0 DUP1 RETURNDATACOPY RETURNDATASIZE PUSH1 0x0 REVERT JUMPDEST POP POP PUSH1 0x40 MLOAD DUP4 DUP2 MSTORE CALLER SWAP3 POP PUSH32 0xA20CBC21EF05A5EE799B3B55232C5ECA2C9E91F4CCBCB11BAE6F6F0CBFFE61D4 SWAP2 POP PUSH1 0x20 ADD PUSH1 0x40 MLOAD DUP1 SWAP2 SUB SWAP1 LOG2 POP JUMP JUMPDEST PUSH2 0xC8B PUSH2 0xE66 JUMP JUMPDEST PUSH1 0x1 PUSH1 0x1 PUSH1 0xA0 SHL SUB DUP2 AND PUSH2 0xCF5 JUMPI PUSH1 0x40 MLOAD PUSH3 0x461BCD PUSH1 0xE5 SHL DUP2 MSTORE PUSH1 0x20 PUSH1 0x4 DUP3 ADD MSTORE PUSH1 0x26 PUSH1 0x24 DUP3 ADD MSTORE PUSH32 0x4F776E61626C653A206E6577206F776E657220697320746865207A65726F2061 PUSH1 0x44 DUP3 ADD MSTORE PUSH6 0x646472657373 PUSH1 0xD0 SHL PUSH1 0x64 DUP3 ADD MSTORE PUSH1 0x84 ADD JUMPDEST PUSH1 0x40 MLOAD DUP1 SWAP2 SUB SWAP1 REVERT JUMPDEST PUSH2 0xCFE DUP2 PUSH2 0xEC0 JUMP JUMPDEST POP JUMP JUMPDEST PUSH1 0x0 DUP1 JUMPDEST PUSH1 0x1 SLOAD DUP2 LT ISZERO PUSH2 0xD61 JUMPI DUP3 PUSH1 0x1 PUSH1 0x1 PUSH1 0xA0 SHL SUB AND PUSH1 0x1 DUP3 DUP2 SLOAD DUP2 LT PUSH2 0xD2C JUMPI PUSH2 0xD2C PUSH2 0x123C JUMP JUMPDEST PUSH1 0x0 SWAP2 DUP3 MSTORE PUSH1 0x20 SWAP1 SWAP2 KECCAK256 ADD SLOAD PUSH1 0x1 PUSH1 0x1 PUSH1 0xA0 SHL SUB AND SUB PUSH2 0xD4F JUMPI POP PUSH1 0x1 SWAP3 SWAP2 POP POP JUMP JUMPDEST DUP1 PUSH2 0xD59 DUP2 PUSH2 0x11C4 JUMP JUMPDEST SWAP2 POP POP PUSH2 0xD05 JUMP JUMPDEST POP PUSH1 0x0 SWAP3 SWAP2 POP POP JUMP JUMPDEST PUSH1 0x1 PUSH1 0x1 PUSH1 0xA0 SHL SUB DUP3 AND PUSH1 0x0 SWAP1 DUP2 MSTORE PUSH1 0x3 PUSH1 0x20 MSTORE PUSH1 0x40 DUP2 KECCAK256 SLOAD PUSH2 0xD8F JUMPI POP PUSH1 0x0 PUSH2 0x76B JUMP JUMPDEST PUSH1 0x0 DUP1 PUSH2 0xD9B DUP5 PUSH2 0xF75 JUMP JUMPDEST SWAP1 SWAP3 POP SWAP1 POP PUSH1 0x0 PUSH2 0xDAD DUP3 PUSH1 0xA PUSH2 0x134C JUMP JUMPDEST PUSH2 0xDB7 DUP8 DUP8 PUSH2 0x1075 JUMP JUMPDEST PUSH2 0xDC1 SWAP2 SWAP1 PUSH2 0x1358 JUMP JUMPDEST SWAP1 POP PUSH1 0x0 PUSH2 0xDEF PUSH32 0x0 DUP4 PUSH2 0x136F JUMP JUMPDEST SWAP1 POP PUSH1 0x0 PUSH2 0xDFE DUP5 PUSH1 0xA PUSH2 0x134C JUMP JUMPDEST PUSH1 0x1 PUSH1 0x1 PUSH1 0xA0 SHL SUB DUP1 DUP10 AND PUSH1 0x0 SWAP1 DUP2 MSTORE PUSH1 0x6 PUSH1 0x20 SWAP1 DUP2 MSTORE PUSH1 0x40 DUP1 DUP4 KECCAK256 SWAP4 DUP14 AND DUP4 MSTORE SWAP3 SWAP1 MSTORE KECCAK256 SLOAD PUSH2 0xE2F SWAP1 DUP8 SWAP1 PUSH2 0x1358 JUMP JUMPDEST PUSH2 0xE39 SWAP2 SWAP1 PUSH2 0x136F JUMP JUMPDEST SWAP1 POP PUSH2 0xE46 DUP5 PUSH1 0xA PUSH2 0x134C JUMP JUMPDEST PUSH2 0xE50 DUP4 DUP4 PUSH2 0x1358 JUMP JUMPDEST PUSH2 0xE5A SWAP2 SWAP1 PUSH2 0x136F JUMP JUMPDEST SWAP9 SWAP8 POP POP POP POP POP POP POP POP JUMP JUMPDEST PUSH1 0x0 SLOAD PUSH1 0x1 PUSH1 0x1 PUSH1 0xA0 SHL SUB AND CALLER EQ PUSH2 0x742 JUMPI PUSH1 0x40 MLOAD PUSH3 0x461BCD PUSH1 0xE5 SHL DUP2 MSTORE PUSH1 0x20 PUSH1 0x4 DUP3 ADD DUP2 SWAP1 MSTORE PUSH1 0x24 DUP3 ADD MSTORE PUSH32 0x4F776E61626C653A2063616C6C6572206973206E6F7420746865206F776E6572 PUSH1 0x44 DUP3 ADD MSTORE PUSH1 0x64 ADD PUSH2 0xCEC JUMP JUMPDEST PUSH1 0x0 DUP1 SLOAD PUSH1 0x1 PUSH1 0x1 PUSH1 0xA0 SHL SUB DUP4 DUP2 AND PUSH1 0x1 PUSH1 0x1 PUSH1 0xA0 SHL SUB NOT DUP4 AND DUP2 OR DUP5 SSTORE PUSH1 0x40 MLOAD SWAP2 SWAP1 SWAP3 AND SWAP3 DUP4 SWAP2 PUSH32 0x8BE0079C531659141344CD1FD0A4F28419497F9722A3DAAFE3B4186F6B6457E0 SWAP2 SWAP1 LOG3 POP POP JUMP JUMPDEST PUSH1 0x0 DUP1 DUP1 JUMPDEST PUSH1 0x1 SLOAD DUP2 LT ISZERO PUSH2 0xF6E JUMPI PUSH2 0xF50 DUP5 PUSH1 0x1 DUP4 DUP2 SLOAD DUP2 LT PUSH2 0xF36 JUMPI PUSH2 0xF36 PUSH2 0x123C JUMP JUMPDEST PUSH1 0x0 SWAP2 DUP3 MSTORE PUSH1 0x20 SWAP1 SWAP2 KECCAK256 ADD SLOAD PUSH1 0x1 PUSH1 0x1 PUSH1 0xA0 SHL SUB AND PUSH2 0xD6A JUMP JUMPDEST PUSH2 0xF5A SWAP1 DUP4 PUSH2 0x11DD JUMP JUMPDEST SWAP2 POP DUP1 PUSH2 0xF66 DUP2 PUSH2 0x11C4 JUMP JUMPDEST SWAP2 POP POP PUSH2 0xF15 JUMP JUMPDEST POP SWAP3 SWAP2 POP POP JUMP JUMPDEST PUSH1 0x1 PUSH1 0x1 PUSH1 0xA0 SHL SUB DUP1 DUP3 AND PUSH1 0x0 SWAP1 DUP2 MSTORE PUSH1 0x4 PUSH1 0x20 DUP2 SWAP1 MSTORE PUSH1 0x40 DUP1 DUP4 KECCAK256 SLOAD DUP2 MLOAD PUSH4 0x3FABE5A3 PUSH1 0xE2 SHL DUP2 MSTORE SWAP2 MLOAD SWAP4 SWAP5 DUP6 SWAP5 SWAP2 AND SWAP3 DUP4 SWAP3 DUP6 SWAP3 DUP5 SWAP3 PUSH4 0xFEAF968C SWAP3 DUP1 DUP3 ADD SWAP3 PUSH1 0xA0 SWAP3 SWAP1 SWAP2 DUP3 SWAP1 SUB ADD DUP2 DUP7 GAS STATICCALL ISZERO DUP1 ISZERO PUSH2 0xFD5 JUMPI RETURNDATASIZE PUSH1 0x0 DUP1 RETURNDATACOPY RETURNDATASIZE PUSH1 0x0 REVERT JUMPDEST POP POP POP POP PUSH1 0x40 MLOAD RETURNDATASIZE PUSH1 0x1F NOT PUSH1 0x1F DUP3 ADD AND DUP3 ADD DUP1 PUSH1 0x40 MSTORE POP DUP2 ADD SWAP1 PUSH2 0xFF9 SWAP2 SWAP1 PUSH2 0x13AB JUMP JUMPDEST POP POP POP SWAP2 POP POP PUSH1 0x0 DUP3 PUSH1 0x1 PUSH1 0x1 PUSH1 0xA0 SHL SUB AND PUSH4 0x313CE567 PUSH1 0x40 MLOAD DUP2 PUSH4 0xFFFFFFFF AND PUSH1 0xE0 SHL DUP2 MSTORE PUSH1 0x4 ADD PUSH1 0x20 PUSH1 0x40 MLOAD DUP1 DUP4 SUB DUP2 DUP7 GAS STATICCALL ISZERO DUP1 ISZERO PUSH2 0x103F JUMPI RETURNDATASIZE PUSH1 0x0 DUP1 RETURNDATACOPY RETURNDATASIZE PUSH1 0x0 REVERT JUMPDEST POP POP POP POP PUSH1 0x40 MLOAD RETURNDATASIZE PUSH1 0x1F NOT PUSH1 0x1F DUP3 ADD AND DUP3 ADD DUP1 PUSH1 0x40 MSTORE POP DUP2 ADD SWAP1 PUSH2 0x1063 SWAP2 SWAP1 PUSH2 0x13FB JUMP JUMPDEST SWAP2 SWAP8 PUSH1 0xFF SWAP1 SWAP3 AND SWAP7 POP SWAP1 SWAP5 POP POP POP POP POP JUMP JUMPDEST PUSH1 0x1 PUSH1 0x1 PUSH1 0xA0 SHL SUB DUP1 DUP3 AND PUSH1 0x0 SWAP1 DUP2 MSTORE PUSH1 0x7 PUSH1 0x20 SWAP1 DUP2 MSTORE PUSH1 0x40 DUP1 DUP4 KECCAK256 SWAP4 DUP7 AND DUP4 MSTORE SWAP3 SWAP1 MSTORE SWAP1 DUP2 KECCAK256 SLOAD TIMESTAMP SWAP1 DUP3 SWAP1 PUSH2 0x10AB SWAP1 DUP4 PUSH2 0x1212 JUMP JUMPDEST SWAP6 SWAP5 POP POP POP POP POP JUMP JUMPDEST PUSH1 0x20 DUP1 DUP3 MSTORE DUP3 MLOAD DUP3 DUP3 ADD DUP2 SWAP1 MSTORE PUSH1 0x0 SWAP2 SWAP1 DUP5 DUP3 ADD SWAP1 PUSH1 0x40 DUP6 ADD SWAP1 DUP5 JUMPDEST DUP2 DUP2 LT ISZERO PUSH2 0x10F5 JUMPI DUP4 MLOAD PUSH1 0x1 PUSH1 0x1 PUSH1 0xA0 SHL SUB AND DUP4 MSTORE SWAP3 DUP5 ADD SWAP3 SWAP2 DUP5 ADD SWAP2 PUSH1 0x1 ADD PUSH2 0x10D0 JUMP JUMPDEST POP SWAP1 SWAP7 SWAP6 POP POP POP POP POP POP JUMP JUMPDEST DUP1 CALLDATALOAD PUSH1 0x1 PUSH1 0x1 PUSH1 0xA0 SHL SUB DUP2 AND DUP2 EQ PUSH2 0x1118 JUMPI PUSH1 0x0 DUP1 REVERT JUMPDEST SWAP2 SWAP1 POP JUMP JUMPDEST PUSH1 0x0 DUP1 PUSH1 0x40 DUP4 DUP6 SUB SLT ISZERO PUSH2 0x1130 JUMPI PUSH1 0x0 DUP1 REVERT JUMPDEST DUP3 CALLDATALOAD SWAP2 POP PUSH2 0x1140 PUSH1 0x20 DUP5 ADD PUSH2 0x1101 JUMP JUMPDEST SWAP1 POP SWAP3 POP SWAP3 SWAP1 POP JUMP JUMPDEST PUSH1 0x0 PUSH1 0x20 DUP3 DUP5 SUB SLT ISZERO PUSH2 0x115B JUMPI PUSH1 0x0 DUP1 REVERT JUMPDEST PUSH2 0x1164 DUP3 PUSH2 0x1101 JUMP JUMPDEST SWAP4 SWAP3 POP POP POP JUMP JUMPDEST PUSH1 0x0 DUP1 PUSH1 0x40 DUP4 DUP6 SUB SLT ISZERO PUSH2 0x117E JUMPI PUSH1 0x0 DUP1 REVERT JUMPDEST PUSH2 0x1187 DUP4 PUSH2 0x1101 JUMP JUMPDEST SWAP2 POP PUSH2 0x1140 PUSH1 0x20 DUP5 ADD PUSH2 0x1101 JUMP JUMPDEST PUSH1 0x0 PUSH1 0x20 DUP3 DUP5 SUB SLT ISZERO PUSH2 0x11A7 JUMPI PUSH1 0x0 DUP1 REVERT JUMPDEST POP MLOAD SWAP2 SWAP1 POP JUMP JUMPDEST PUSH4 0x4E487B71 PUSH1 0xE0 SHL PUSH1 0x0 MSTORE PUSH1 0x11 PUSH1 0x4 MSTORE PUSH1 0x24 PUSH1 0x0 REVERT JUMPDEST PUSH1 0x0 PUSH1 0x1 DUP3 ADD PUSH2 0x11D6 JUMPI PUSH2 0x11D6 PUSH2 0x11AE JUMP JUMPDEST POP PUSH1 0x1 ADD SWAP1 JUMP JUMPDEST DUP1 DUP3 ADD DUP1 DUP3 GT ISZERO PUSH2 0x76B JUMPI PUSH2 0x76B PUSH2 0x11AE JUMP JUMPDEST PUSH1 0x0 PUSH1 0x20 DUP3 DUP5 SUB SLT ISZERO PUSH2 0x1202 JUMPI PUSH1 0x0 DUP1 REVERT JUMPDEST DUP2 MLOAD DUP1 ISZERO ISZERO DUP2 EQ PUSH2 0x1164 JUMPI PUSH1 0x0 DUP1 REVERT JUMPDEST DUP2 DUP2 SUB DUP2 DUP2 GT ISZERO PUSH2 0x76B JUMPI PUSH2 0x76B PUSH2 0x11AE JUMP JUMPDEST PUSH1 0x0 DUP2 PUSH2 0x1234 JUMPI PUSH2 0x1234 PUSH2 0x11AE JUMP JUMPDEST POP PUSH1 0x0 NOT ADD SWAP1 JUMP JUMPDEST PUSH4 0x4E487B71 PUSH1 0xE0 SHL PUSH1 0x0 MSTORE PUSH1 0x32 PUSH1 0x4 MSTORE PUSH1 0x24 PUSH1 0x0 REVERT JUMPDEST PUSH4 0x4E487B71 PUSH1 0xE0 SHL PUSH1 0x0 MSTORE PUSH1 0x31 PUSH1 0x4 MSTORE PUSH1 0x24 PUSH1 0x0 REVERT JUMPDEST PUSH1 0x1 DUP2 DUP2 JUMPDEST DUP1 DUP6 GT ISZERO PUSH2 0x12A3 JUMPI DUP2 PUSH1 0x0 NOT DIV DUP3 GT ISZERO PUSH2 0x1289 JUMPI PUSH2 0x1289 PUSH2 0x11AE JUMP JUMPDEST DUP1 DUP6 AND ISZERO PUSH2 0x1296 JUMPI SWAP2 DUP2 MUL SWAP2 JUMPDEST SWAP4 DUP5 SHR SWAP4 SWAP1 DUP1 MUL SWAP1 PUSH2 0x126D JUMP JUMPDEST POP SWAP3 POP SWAP3 SWAP1 POP JUMP JUMPDEST PUSH1 0x0 DUP3 PUSH2 0x12BA JUMPI POP PUSH1 0x1 PUSH2 0x76B JUMP JUMPDEST DUP2 PUSH2 0x12C7 JUMPI POP PUSH1 0x0 PUSH2 0x76B JUMP JUMPDEST DUP2 PUSH1 0x1 DUP2 EQ PUSH2 0x12DD JUMPI PUSH1 0x2 DUP2 EQ PUSH2 0x12E7 JUMPI PUSH2 0x1303 JUMP JUMPDEST PUSH1 0x1 SWAP2 POP POP PUSH2 0x76B JUMP JUMPDEST PUSH1 0xFF DUP5 GT ISZERO PUSH2 0x12F8 JUMPI PUSH2 0x12F8 PUSH2 0x11AE JUMP JUMPDEST POP POP PUSH1 0x1 DUP3 SHL PUSH2 0x76B JUMP JUMPDEST POP PUSH1 0x20 DUP4 LT PUSH2 0x133 DUP4 LT AND PUSH1 0x4E DUP5 LT PUSH1 0xB DUP5 LT AND OR ISZERO PUSH2 0x1326 JUMPI POP DUP2 DUP2 EXP PUSH2 0x76B JUMP JUMPDEST PUSH2 0x1330 DUP4 DUP4 PUSH2 0x1268 JUMP JUMPDEST DUP1 PUSH1 0x0 NOT DIV DUP3 GT ISZERO PUSH2 0x1344 JUMPI PUSH2 0x1344 PUSH2 0x11AE JUMP JUMPDEST MUL SWAP4 SWAP3 POP POP POP JUMP JUMPDEST PUSH1 0x0 PUSH2 0x1164 DUP4 DUP4 PUSH2 0x12AB JUMP JUMPDEST DUP1 DUP3 MUL DUP2 ISZERO DUP3 DUP3 DIV DUP5 EQ OR PUSH2 0x76B JUMPI PUSH2 0x76B PUSH2 0x11AE JUMP JUMPDEST PUSH1 0x0 DUP3 PUSH2 0x138C JUMPI PUSH4 0x4E487B71 PUSH1 0xE0 SHL PUSH1 0x0 MSTORE PUSH1 0x12 PUSH1 0x4 MSTORE PUSH1 0x24 PUSH1 0x0 REVERT JUMPDEST POP DIV SWAP1 JUMP JUMPDEST DUP1 MLOAD PUSH10 0xFFFFFFFFFFFFFFFFFFFF DUP2 AND DUP2 EQ PUSH2 0x1118 JUMPI PUSH1 0x0 DUP1 REVERT JUMPDEST PUSH1 0x0 DUP1 PUSH1 0x0 DUP1 PUSH1 0x0 PUSH1 0xA0 DUP7 DUP9 SUB SLT ISZERO PUSH2 0x13C3 JUMPI PUSH1 0x0 DUP1 REVERT JUMPDEST PUSH2 0x13CC DUP7 PUSH2 0x1391 JUMP JUMPDEST SWAP5 POP PUSH1 0x20 DUP7 ADD MLOAD SWAP4 POP PUSH1 0x40 DUP7 ADD MLOAD SWAP3 POP PUSH1 0x60 DUP7 ADD MLOAD SWAP2 POP PUSH2 0x13EF PUSH1 0x80 DUP8 ADD PUSH2 0x1391 JUMP JUMPDEST SWAP1 POP SWAP3 SWAP6 POP SWAP3 SWAP6 SWAP1 SWAP4 POP JUMP JUMPDEST PUSH1 0x0 PUSH1 0x20 DUP3 DUP5 SUB SLT ISZERO PUSH2 0x140D JUMPI PUSH1 0x0 DUP1 REVERT JUMPDEST DUP2 MLOAD PUSH1 0xFF DUP2 AND DUP2 EQ PUSH2 0x1164 JUMPI PUSH1 0x0 DUP1 REVERT INVALID LOG2 PUSH5 0x6970667358 0x22 SLT KECCAK256 0xBA MSTORE 0xBF MUL MLOAD PUSH24 0x2E3B45FC8AE9041DB96B2805764245C3FE0405EB69FF1729 0x28 0xC8 PUSH5 0x736F6C6343 STOP ADDMOD GT STOP CALLER ","sha1":"683ec5d6788aff3235d949f80893de513906e6c2","source":"// SPDX-License-identifier: MIT\n\npragma solidity ^0.8.17;\n\nimport \"@openzeppelin/contracts/token/ERC20/IERC20.sol\";\nimport \"@openzeppelin/contracts/access/Ownable.sol\";\nimport \"@chainlink/contracts/src/v0.8/interfaces/AggregatorV3Interface.sol\";\nimport \"./CubeToken.sol\";\n\nerror CubeFarm__CannotStakeAmountZero();\nerror CubeFarm__TokenNotAllowed();\nerror CubeFarm__CannotUnStakeZeroBalance();\nerror CubeFarm__CannotUnStakeMoreThanUserBalance();\nerror CubeFarm__NoRewardsToTransfer();\nerror CubeFarm__ExternalCallFailed();\n\n/**\n * @title CubeFarm\n * @author jrchain\n * @notice This contract creates a simple yield farming defi that rewards users for staking up their differents token with a new ERC20 token CubeToken.\n * @dev The constructor takes the address of the CubeToken ERC20 and a rate.\n * The rate is used in the algorithm to calculate the rewards that should be distributed to the user.\n * The rate represents the time in seconds to be rewarded by 100% of the amount staked.\n * For example if the rate is 86400 seconds (1 day) and the amount staked is 1 ether, then the reward will be 1 ether (in CubeToken) after 1 day of staking.\n * Ownership of the CubeToken contract should be transferred to the CubeFarm contract after deployment.\n * This contract also implements the Chainlink price feed.\n */\ncontract CubeFarm is Ownable {\n    CubeToken private immutable i_cubeToken;\n    uint256 private immutable i_rate;\n    address[] private s_allowedTokens;\n    address[] private s_stakers;\n    mapping(address => uint256) private s_uniqueTokensStaked;\n    mapping(address => address) private s_tokenPriceFeeds;\n    mapping(address => uint256) private s_cubeBalance;\n    mapping(address => mapping(address => uint256)) private s_stakingBalance;\n    mapping(address => mapping(address => uint256)) private s_startTime;\n\n    event TokenStaked(\n        address indexed token,\n        address indexed staker,\n        uint256 amount\n    );\n    event TokenUnstaked(\n        address indexed token,\n        address indexed staker,\n        uint256 amount\n    );\n    event YieldRewarded(address indexed staker, uint256 rewards);\n\n    /**\n     * @notice contructor\n     * @param _cubeTokenAddress CubeToken contract address\n     * @param _rate rate in seconds for calculating the rewards\n     */\n    constructor(CubeToken _cubeTokenAddress, uint256 _rate) {\n        i_cubeToken = _cubeTokenAddress;\n        i_rate = _rate;\n    }\n\n    /**\n     * @notice Set the price feed for a specific token\n     * @param _token token address\n     * @param _priceFeedAddress price feed address\n     */\n    function setPriceFeedContract(address _token, address _priceFeedAddress)\n        external\n        onlyOwner\n    {\n        s_tokenPriceFeeds[_token] = _priceFeedAddress;\n    }\n\n    /**\n     * @notice Add a token to the allowed tokens list\n     * @param _token token address to add to the list\n     */\n    function addAllowedToken(address _token) external onlyOwner {\n        s_allowedTokens.push(_token);\n    }\n\n    /**\n     * @notice Allow user to stake tokens\n     * @param _amount amount to stake\n     * @param _token address of the token to stake\n     * @dev emit an event TokenStaked when token is staked\n     */\n    function stakeTokens(uint256 _amount, address _token) external {\n        if (_amount <= 0 || IERC20(_token).balanceOf(msg.sender) < _amount)\n            revert CubeFarm__CannotStakeAmountZero();\n        if (!isTokenAllowed(_token)) revert CubeFarm__TokenNotAllowed();\n        if (s_stakingBalance[_token][msg.sender] <= 0)\n            s_uniqueTokensStaked[msg.sender]++;\n        if (s_stakingBalance[_token][msg.sender] > 0) {\n            uint256 toTransfer = getUserYieldRewardsByToken(msg.sender, _token);\n            s_cubeBalance[msg.sender] += toTransfer;\n        }\n        s_stakingBalance[_token][msg.sender] =\n            s_stakingBalance[_token][msg.sender] +\n            _amount;\n        if (s_uniqueTokensStaked[msg.sender] == 1) s_stakers.push(msg.sender);\n        s_startTime[_token][msg.sender] = block.timestamp;\n        bool success = IERC20(_token).transferFrom(\n            msg.sender,\n            address(this),\n            _amount\n        );\n        if (!success) revert CubeFarm__ExternalCallFailed();\n        emit TokenStaked(_token, msg.sender, _amount);\n    }\n\n    /**\n     * @notice Allow user to unstake tokens\n     * @param _amount amount to unstake\n     * @param _token address of the token to unstake\n     * @dev emit an event TokenUnstaked when token is unstaked\n     */\n    function unstakeTokens(uint256 _amount, address _token) external {\n        uint256 userBalance = s_stakingBalance[_token][msg.sender];\n        if (userBalance <= 0) revert CubeFarm__CannotUnStakeZeroBalance();\n        if (_amount > userBalance)\n            revert CubeFarm__CannotUnStakeMoreThanUserBalance();\n        uint256 toTransfer = getUserYieldRewardsByToken(msg.sender, _token);\n        s_startTime[_token][msg.sender] = block.timestamp;\n        s_stakingBalance[_token][msg.sender] -= _amount;\n        s_cubeBalance[msg.sender] += toTransfer;\n        if (s_stakingBalance[_token][msg.sender] == 0)\n            s_uniqueTokensStaked[msg.sender]--;\n        if (s_uniqueTokensStaked[msg.sender] == 0) {\n            for (\n                uint256 stakersIndex = 0;\n                stakersIndex < s_stakers.length;\n                stakersIndex++\n            ) {\n                if (s_stakers[stakersIndex] == msg.sender) {\n                    s_stakers[stakersIndex] = s_stakers[s_stakers.length - 1];\n                    s_stakers.pop();\n                }\n            }\n        }\n        bool success = IERC20(_token).transfer(msg.sender, _amount);\n        if (!success) revert CubeFarm__ExternalCallFailed();\n        emit TokenUnstaked(_token, msg.sender, _amount);\n    }\n\n    /**\n     * @notice Allow user to claim his rewards\n     * @dev emit an event YieldRewarded when rewards have been claimed\n     */\n    function claimYieldRewards() external {\n        uint256 toTransfer = getUserTotalYieldRewards(msg.sender);\n        if (s_cubeBalance[msg.sender] != 0) {\n            uint256 oldBalance = s_cubeBalance[msg.sender];\n            s_cubeBalance[msg.sender] = 0;\n            toTransfer += oldBalance;\n        }\n        for (\n            uint256 allowedTokenIndex;\n            allowedTokenIndex < s_allowedTokens.length;\n            allowedTokenIndex++\n        ) {\n            s_startTime[s_allowedTokens[allowedTokenIndex]][msg.sender] = block\n                .timestamp;\n        }\n        if (toTransfer <= 0) revert CubeFarm__NoRewardsToTransfer();\n        i_cubeToken.mint(msg.sender, toTransfer);\n        emit YieldRewarded(msg.sender, toTransfer);\n    }\n\n    /**\n     * @notice Check if the token is allowed\n     * @param _token address of the token to check\n     * @return isAllowed true if allowed, false ether\n     */\n    function isTokenAllowed(address _token) internal returns (bool) {\n        for (\n            uint256 allowedTokenIndex = 0;\n            allowedTokenIndex < s_allowedTokens.length;\n            allowedTokenIndex++\n        ) {\n            if (s_allowedTokens[allowedTokenIndex] == _token) return true;\n        }\n        return false;\n    }\n\n    /**\n     * @notice Get the user total yield rewards\n     * @param _user address of the user\n     * @return totalYieldReward total yield rewards of user\n     */\n    function getUserTotalYieldRewards(address _user)\n        internal\n        view\n        returns (uint256)\n    {\n        uint256 totalYieldReward = 0;\n        for (\n            uint256 allowedTokenIndex;\n            allowedTokenIndex < s_allowedTokens.length;\n            allowedTokenIndex++\n        ) {\n            totalYieldReward =\n                totalYieldReward +\n                getUserYieldRewardsByToken(\n                    _user,\n                    s_allowedTokens[allowedTokenIndex]\n                );\n        }\n\n        return totalYieldReward;\n    }\n\n    /**\n     * @notice Get the user rewards by token\n     * @param _user address of the user\n     * @param _token address of the token\n     * @return rewards total rewards by specific token\n     */\n    function getUserYieldRewardsByToken(address _user, address _token)\n        internal\n        view\n        returns (uint256)\n    {\n        if (s_uniqueTokensStaked[_user] <= 0) return 0;\n        (uint256 price, uint256 decimals) = getTokenValue(_token);\n        uint256 time = calculateYieldTime(_user, _token) * (10**decimals);\n        uint256 timeRate = time / i_rate;\n        uint256 stakingPrice = ((s_stakingBalance[_token][_user] * price) /\n            (10**decimals));\n        return ((stakingPrice * timeRate) / (10**decimals));\n    }\n\n    /**\n     * @notice Get the last known value of the token thanks to Chainlink price feed\n     * @param _token address of the token\n     * @return price the last price\n     * @return decimals decimals of the price\n     * @dev Implements Chainlink price feed\n     */\n    function getTokenValue(address _token)\n        internal\n        view\n        returns (uint256, uint256)\n    {\n        address priceFeedAddress = s_tokenPriceFeeds[_token];\n        AggregatorV3Interface priceFeed = AggregatorV3Interface(\n            priceFeedAddress\n        );\n        (, int256 price, , , ) = priceFeed.latestRoundData();\n        uint256 decimals = priceFeed.decimals();\n\n        return (uint256(price), uint256(decimals));\n    }\n\n    /**\n     * @notice Calculate since how long the user stake a specific token\n     * @param _user address of the user to check\n     * @param _token address of the token to check\n     * @return totalTime time since the user start to stake this token\n     */\n    function calculateYieldTime(address _user, address _token)\n        internal\n        view\n        returns (uint256)\n    {\n        uint256 end = block.timestamp;\n        uint256 totalTime = end - s_startTime[_token][_user];\n        return totalTime;\n    }\n\n    /**\n     * @notice Get the total of pending rewards of a specific user\n     * @param _user address of the user\n     * @return totalPendingRewards total of pending rewards\n     */\n    function getTotalPendingRewards(address _user)\n        external\n        view\n        returns (uint256)\n    {\n        return getUserTotalYieldRewards(_user) + s_cubeBalance[_user];\n    }\n\n    /**\n     * @notice Get Cube token address\n     * @return cubeTokenAddress Cube token address\n     */\n    function getCubeTokenAddress() external view returns (address) {\n        return address(i_cubeToken);\n    }\n\n    /**\n     * @notice Get the rate\n     * @return rate rate\n     */\n    function getRate() external view returns (uint256) {\n        return i_rate;\n    }\n\n    /**\n     * @notice Get the price feed address of a specific token\n     * @param _token address of the token\n     * @return priceFeedAddress price feed address\n     */\n    function getPriceFeedContract(address _token)\n        external\n        view\n        returns (address)\n    {\n        return s_tokenPriceFeeds[_token];\n    }\n\n    /**\n     * @notice Get the balance of a specific token staked by a user\n     * @param _user address of the user\n     * @param _token address of the token\n     * @return balance balance staked\n     */\n    function getUserTokenBalance(address _user, address _token)\n        external\n        view\n        returns (uint256)\n    {\n        return s_stakingBalance[_token][_user];\n    }\n\n    /**\n     * @notice Get the number of different tokens a user stake\n     * @param _user address of the user\n     * @return numberOfTokens number of tokens\n     */\n    function getNumberOfTokenStaked(address _user)\n        external\n        view\n        returns (uint256)\n    {\n        return s_uniqueTokensStaked[_user];\n    }\n\n    /**\n     * @notice Get the start time of last staking by a user on a specific token\n     * @param _user address of the user\n     * @param _token address of the token\n     * @return startTime start time from last staking\n     */\n    function getUserTokenStartTime(address _user, address _token)\n        external\n        view\n        returns (uint256)\n    {\n        return s_startTime[_token][_user];\n    }\n\n    /**\n     * @notice Get Cube balance of a specific user\n     * @param _user address of the user\n     * @return cubeBalance Cube balance\n     */\n    function getUserCubeBalance(address _user) external view returns (uint256) {\n        return s_cubeBalance[_user];\n    }\n\n    /**\n     * @notice Get the list of stakers\n     * @return stakers address list of stakers\n     */\n    function getStakers() external view returns (address[] memory) {\n        return s_stakers;\n    }\n\n    /**\n     * @notice Get the list of allowed tokens\n     * @return allowedTokens address list of allowed tokens\n     */\n    function getAllowedTokens() external view returns (address[] memory) {\n        return s_allowedTokens;\n    }\n}\n","sourcePath":"contracts/CubeFarm.sol","type":"contract","deployment":{"address":"0x72F29d60F4C72302455138D5F2A52D3dDE0fF38f","chainid":"5","blockHeight":7788825}}